{
  "contractName": "Auth",
  "abi": [
    {
      "inputs": [
        {
          "internalType": "address",
          "name": "_isAdmin",
          "type": "address"
        }
      ],
      "stateMutability": "nonpayable",
      "type": "constructor"
    },
    {
      "inputs": [
        {
          "internalType": "address",
          "name": "",
          "type": "address"
        },
        {
          "internalType": "address",
          "name": "",
          "type": "address"
        }
      ],
      "name": "_admins",
      "outputs": [
        {
          "internalType": "bool",
          "name": "isAllowed",
          "type": "bool"
        },
        {
          "internalType": "address",
          "name": "admin",
          "type": "address"
        }
      ],
      "stateMutability": "view",
      "type": "function"
    },
    {
      "inputs": [
        {
          "internalType": "address",
          "name": "_newAdmin",
          "type": "address"
        }
      ],
      "name": "createAccess",
      "outputs": [
        {
          "internalType": "bool",
          "name": "success",
          "type": "bool"
        }
      ],
      "stateMutability": "nonpayable",
      "type": "function"
    },
    {
      "inputs": [
        {
          "internalType": "address",
          "name": "_admin",
          "type": "address"
        }
      ],
      "name": "restrict",
      "outputs": [
        {
          "internalType": "bool",
          "name": "",
          "type": "bool"
        }
      ],
      "stateMutability": "nonpayable",
      "type": "function"
    },
    {
      "inputs": [
        {
          "internalType": "address",
          "name": "_user_address",
          "type": "address"
        }
      ],
      "name": "readAdmin",
      "outputs": [
        {
          "components": [
            {
              "internalType": "bool",
              "name": "isAllowed",
              "type": "bool"
            },
            {
              "internalType": "address",
              "name": "admin",
              "type": "address"
            }
          ],
          "internalType": "struct Auth.admin_",
          "name": "",
          "type": "tuple"
        }
      ],
      "stateMutability": "view",
      "type": "function"
    }
  ],
  "bytecode": "0x608060405234801561000f575f80fd5b50604051610ae5380380610ae58339818101604052810190610031919061021f565b805f806101000a81548173ffffffffffffffffffffffffffffffffffffffff021916908373ffffffffffffffffffffffffffffffffffffffff16021790555060405180604001604052806001151581526020015f8054906101000a900473ffffffffffffffffffffffffffffffffffffffff1673ffffffffffffffffffffffffffffffffffffffff1681525060015f805f9054906101000a900473ffffffffffffffffffffffffffffffffffffffff1673ffffffffffffffffffffffffffffffffffffffff1673ffffffffffffffffffffffffffffffffffffffff1681526020019081526020015f205f8373ffffffffffffffffffffffffffffffffffffffff1673ffffffffffffffffffffffffffffffffffffffff1681526020019081526020015f205f820151815f015f6101000a81548160ff0219169083151502179055506020820151815f0160016101000a81548173ffffffffffffffffffffffffffffffffffffffff021916908373ffffffffffffffffffffffffffffffffffffffff1602179055509050505061024a565b5f80fd5b5f73ffffffffffffffffffffffffffffffffffffffff82169050919050565b5f6101ee826101c5565b9050919050565b6101fe816101e4565b8114610208575f80fd5b50565b5f81519050610219816101f5565b92915050565b5f60208284031215610234576102336101c1565b5b5f6102418482850161020b565b91505092915050565b61088e806102575f395ff3fe608060405234801561000f575f80fd5b506004361061004a575f3560e01c8063560119001461004e578063682817081461007e578063cec9feb3146100ae578063ea1e07d1146100de575b5f80fd5b610068600480360381019061006391906106aa565b61010f565b604051610075919061072b565b60405180910390f35b610098600480360381019061009391906106aa565b6102bc565b6040516100a59190610753565b60405180910390f35b6100c860048036038101906100c391906106aa565b610402565b6040516100d59190610753565b60405180910390f35b6100f860048036038101906100f3919061076c565b6105c6565b6040516101069291906107b9565b60405180910390f35b61011761061c565b5f8054906101000a900473ffffffffffffffffffffffffffffffffffffffff1673ffffffffffffffffffffffffffffffffffffffff163373ffffffffffffffffffffffffffffffffffffffff16146101a4576040517f08c379a000000000000000000000000000000000000000000000000000000000815260040161019b9061083a565b60405180910390fd5b60015f805f9054906101000a900473ffffffffffffffffffffffffffffffffffffffff1673ffffffffffffffffffffffffffffffffffffffff1673ffffffffffffffffffffffffffffffffffffffff1681526020019081526020015f205f8373ffffffffffffffffffffffffffffffffffffffff1673ffffffffffffffffffffffffffffffffffffffff1681526020019081526020015f206040518060400160405290815f82015f9054906101000a900460ff161515151581526020015f820160019054906101000a900473ffffffffffffffffffffffffffffffffffffffff1673ffffffffffffffffffffffffffffffffffffffff1673ffffffffffffffffffffffffffffffffffffffff16815250509050919050565b5f805f9054906101000a900473ffffffffffffffffffffffffffffffffffffffff1673ffffffffffffffffffffffffffffffffffffffff163373ffffffffffffffffffffffffffffffffffffffff161461034b576040517f08c379a00000000000000000000000000000000000000000000000000000000081526004016103429061083a565b60405180910390fd5b5f60015f805f9054906101000a900473ffffffffffffffffffffffffffffffffffffffff1673ffffffffffffffffffffffffffffffffffffffff1673ffffffffffffffffffffffffffffffffffffffff1681526020019081526020015f205f8473ffffffffffffffffffffffffffffffffffffffff1673ffffffffffffffffffffffffffffffffffffffff1681526020019081526020015f205f015f6101000a81548160ff02191690831515021790559050919050565b5f805f9054906101000a900473ffffffffffffffffffffffffffffffffffffffff1673ffffffffffffffffffffffffffffffffffffffff163373ffffffffffffffffffffffffffffffffffffffff1614610491576040517f08c379a00000000000000000000000000000000000000000000000000000000081526004016104889061083a565b60405180910390fd5b60405180604001604052806001151581526020018373ffffffffffffffffffffffffffffffffffffffff1681525060015f805f9054906101000a900473ffffffffffffffffffffffffffffffffffffffff1673ffffffffffffffffffffffffffffffffffffffff1673ffffffffffffffffffffffffffffffffffffffff1681526020019081526020015f205f8473ffffffffffffffffffffffffffffffffffffffff1673ffffffffffffffffffffffffffffffffffffffff1681526020019081526020015f205f820151815f015f6101000a81548160ff0219169083151502179055506020820151815f0160016101000a81548173ffffffffffffffffffffffffffffffffffffffff021916908373ffffffffffffffffffffffffffffffffffffffff16021790555090505060019050919050565b6001602052815f5260405f20602052805f5260405f205f9150915050805f015f9054906101000a900460ff1690805f0160019054906101000a900473ffffffffffffffffffffffffffffffffffffffff16905082565b60405180604001604052805f151581526020015f73ffffffffffffffffffffffffffffffffffffffff1681525090565b5f80fd5b5f73ffffffffffffffffffffffffffffffffffffffff82169050919050565b5f61067982610650565b9050919050565b6106898161066f565b8114610693575f80fd5b50565b5f813590506106a481610680565b92915050565b5f602082840312156106bf576106be61064c565b5b5f6106cc84828501610696565b91505092915050565b5f8115159050919050565b6106e9816106d5565b82525050565b6106f88161066f565b82525050565b604082015f8201516107125f8501826106e0565b50602082015161072560208501826106ef565b50505050565b5f60408201905061073e5f8301846106fe565b92915050565b61074d816106d5565b82525050565b5f6020820190506107665f830184610744565b92915050565b5f80604083850312156107825761078161064c565b5b5f61078f85828601610696565b92505060206107a085828601610696565b9150509250929050565b6107b38161066f565b82525050565b5f6040820190506107cc5f830185610744565b6107d960208301846107aa565b9392505050565b5f82825260208201905092915050565b7f4163636573732064656e696564000000000000000000000000000000000000005f82015250565b5f610824600d836107e0565b915061082f826107f0565b602082019050919050565b5f6020820190508181035f83015261085181610818565b905091905056fea26469706673582212207078679a9d80412c8fbf3194e66ab545aec4828d2f8668c49262166a2eef0aa464736f6c63430008150033",
  "immutableReferences": {},
  "source": "// SPDX-License-Identifier: MIT\npragma solidity >=0.4.22 <0.9.0;\n\ncontract Auth {\n    address private _owner;\n\n    struct admin_ {\n        bool isAllowed;\n        address admin;\n    }\n\n    mapping(address => mapping(address => admin_)) public _admins;\n\n    constructor(address _isAdmin) public {\n        _owner = _isAdmin;\n\n        _admins[_owner][_isAdmin] = admin_({isAllowed: true, admin: _owner});\n    }\n\n    modifier _isDirector() virtual {\n        require(msg.sender == _owner, \"Access denied\");\n        _;\n    }\n    function createAccess(\n        address _newAdmin\n    ) public _isDirector returns (bool success) {\n        _admins[_owner][_newAdmin] = admin_({\n            isAllowed: true,\n            admin: _newAdmin\n        });\n        return true;\n    }\n\n    function restrict(address _admin) public _isDirector returns (bool) {\n        return _admins[_owner][_admin].isAllowed = false;\n    }\n\n    function readAdmin(\n        address _user_address\n    ) public view _isDirector returns (admin_ memory) {\n        return _admins[_owner][_user_address];\n    }\n}\n",
  "sourcePath": "C:\\Users\\Ayomide\\Blockchain\\CMS\\contracts\\Auth\\_Auth.sol",
  "compiler": {
    "name": "solc",
    "version": "0.8.21+commit.d9974bed.Emscripten.clang"
  },
  "schemaVersion": "3.4.16",
  "updatedAt": "2024-07-03T05:19:26.275Z",
  "devdoc": {
    "kind": "dev",
    "methods": {},
    "version": 1
  },
  "userdoc": {
    "kind": "user",
    "methods": {},
    "version": 1
  }
}