{
  "contractName": "CMS",
  "abi": [
    {
      "inputs": [
        {
          "internalType": "address payable",
          "name": "_address",
          "type": "address"
        }
      ],
      "stateMutability": "nonpayable",
      "type": "constructor"
    },
    {
      "anonymous": false,
      "inputs": [
        {
          "indexed": false,
          "internalType": "address",
          "name": "_buyer",
          "type": "address"
        },
        {
          "indexed": false,
          "internalType": "uint256",
          "name": "amount",
          "type": "uint256"
        }
      ],
      "name": "Purchase",
      "type": "event"
    },
    {
      "inputs": [
        {
          "internalType": "address",
          "name": "",
          "type": "address"
        },
        {
          "internalType": "address",
          "name": "",
          "type": "address"
        }
      ],
      "name": "_admins",
      "outputs": [
        {
          "internalType": "bool",
          "name": "isAllowed",
          "type": "bool"
        },
        {
          "internalType": "address",
          "name": "admin",
          "type": "address"
        }
      ],
      "stateMutability": "view",
      "type": "function"
    },
    {
      "inputs": [],
      "name": "_owner",
      "outputs": [
        {
          "internalType": "address payable",
          "name": "",
          "type": "address"
        }
      ],
      "stateMutability": "view",
      "type": "function"
    },
    {
      "inputs": [],
      "name": "_totalShares",
      "outputs": [
        {
          "internalType": "uint256",
          "name": "",
          "type": "uint256"
        }
      ],
      "stateMutability": "view",
      "type": "function"
    },
    {
      "inputs": [],
      "name": "business_name",
      "outputs": [
        {
          "internalType": "string",
          "name": "",
          "type": "string"
        }
      ],
      "stateMutability": "view",
      "type": "function"
    },
    {
      "inputs": [
        {
          "internalType": "address",
          "name": "_newAdmin",
          "type": "address"
        }
      ],
      "name": "createAccess",
      "outputs": [
        {
          "internalType": "bool",
          "name": "success",
          "type": "bool"
        }
      ],
      "stateMutability": "nonpayable",
      "type": "function"
    },
    {
      "inputs": [
        {
          "internalType": "address",
          "name": "",
          "type": "address"
        }
      ],
      "name": "members",
      "outputs": [
        {
          "internalType": "address",
          "name": "identity",
          "type": "address"
        },
        {
          "internalType": "string",
          "name": "name",
          "type": "string"
        },
        {
          "internalType": "bool",
          "name": "isShareHolder",
          "type": "bool"
        },
        {
          "internalType": "bool",
          "name": "onboarded",
          "type": "bool"
        }
      ],
      "stateMutability": "view",
      "type": "function"
    },
    {
      "inputs": [
        {
          "internalType": "address",
          "name": "_user_address",
          "type": "address"
        }
      ],
      "name": "readAdmin",
      "outputs": [
        {
          "components": [
            {
              "internalType": "bool",
              "name": "isAllowed",
              "type": "bool"
            },
            {
              "internalType": "address",
              "name": "admin",
              "type": "address"
            }
          ],
          "internalType": "struct Auth.admin_",
          "name": "",
          "type": "tuple"
        }
      ],
      "stateMutability": "view",
      "type": "function"
    },
    {
      "inputs": [
        {
          "internalType": "address",
          "name": "_admin",
          "type": "address"
        }
      ],
      "name": "restrict",
      "outputs": [
        {
          "internalType": "bool",
          "name": "",
          "type": "bool"
        }
      ],
      "stateMutability": "nonpayable",
      "type": "function"
    },
    {
      "inputs": [
        {
          "internalType": "address",
          "name": "_address",
          "type": "address"
        }
      ],
      "name": "balanceOf",
      "outputs": [
        {
          "internalType": "uint256",
          "name": "balance",
          "type": "uint256"
        }
      ],
      "stateMutability": "view",
      "type": "function"
    },
    {
      "inputs": [
        {
          "internalType": "address",
          "name": "_user_address",
          "type": "address"
        },
        {
          "internalType": "string",
          "name": "_user_name",
          "type": "string"
        }
      ],
      "name": "onboard",
      "outputs": [
        {
          "components": [
            {
              "internalType": "address",
              "name": "identity",
              "type": "address"
            },
            {
              "internalType": "string",
              "name": "name",
              "type": "string"
            },
            {
              "internalType": "bool",
              "name": "isShareHolder",
              "type": "bool"
            },
            {
              "internalType": "bool",
              "name": "onboarded",
              "type": "bool"
            }
          ],
          "internalType": "struct CMS.member",
          "name": "",
          "type": "tuple"
        }
      ],
      "stateMutability": "nonpayable",
      "type": "function"
    },
    {
      "inputs": [
        {
          "internalType": "address",
          "name": "_address",
          "type": "address"
        }
      ],
      "name": "permit",
      "outputs": [
        {
          "internalType": "bool",
          "name": "status",
          "type": "bool"
        }
      ],
      "stateMutability": "nonpayable",
      "type": "function"
    },
    {
      "inputs": [
        {
          "internalType": "address",
          "name": "_user",
          "type": "address"
        }
      ],
      "name": "buy",
      "outputs": [
        {
          "internalType": "bool",
          "name": "success",
          "type": "bool"
        }
      ],
      "stateMutability": "payable",
      "type": "function"
    },
    {
      "inputs": [
        {
          "internalType": "address",
          "name": "_user",
          "type": "address"
        }
      ],
      "name": "checkPermission",
      "outputs": [
        {
          "internalType": "bool",
          "name": "",
          "type": "bool"
        }
      ],
      "stateMutability": "view",
      "type": "function"
    },
    {
      "inputs": [
        {
          "internalType": "address",
          "name": "_address",
          "type": "address"
        }
      ],
      "name": "mint",
      "outputs": [
        {
          "internalType": "uint256",
          "name": "",
          "type": "uint256"
        }
      ],
      "stateMutability": "nonpayable",
      "type": "function"
    },
    {
      "inputs": [
        {
          "internalType": "address",
          "name": "_from",
          "type": "address"
        },
        {
          "internalType": "address",
          "name": "_to",
          "type": "address"
        },
        {
          "internalType": "uint256",
          "name": "amount",
          "type": "uint256"
        }
      ],
      "name": "transfer",
      "outputs": [
        {
          "internalType": "bool",
          "name": "success",
          "type": "bool"
        }
      ],
      "stateMutability": "nonpayable",
      "type": "function"
    }
  ],
  "bytecode": "0x6080604052600f6003556103e860045560646006556101f460075534801562000026575f80fd5b50604051620031793803806200317983398181016040528101906200004c919062000641565b80805f806101000a81548173ffffffffffffffffffffffffffffffffffffffff021916908373ffffffffffffffffffffffffffffffffffffffff16021790555060405180604001604052806001151581526020015f8054906101000a900473ffffffffffffffffffffffffffffffffffffffff1673ffffffffffffffffffffffffffffffffffffffff1681525060015f805f9054906101000a900473ffffffffffffffffffffffffffffffffffffffff1673ffffffffffffffffffffffffffffffffffffffff1673ffffffffffffffffffffffffffffffffffffffff1681526020019081526020015f205f8373ffffffffffffffffffffffffffffffffffffffff1673ffffffffffffffffffffffffffffffffffffffff1681526020019081526020015f205f820151815f015f6101000a81548160ff0219169083151502179055506020820151815f0160016101000a81548173ffffffffffffffffffffffffffffffffffffffff021916908373ffffffffffffffffffffffffffffffffffffffff160217905550905050506040518060400160405280600c81526020017f434f534d4f5320544f4b454e0000000000000000000000000000000000000000815250600590816200021e9190620008d5565b508060085f6101000a81548173ffffffffffffffffffffffffffffffffffffffff021916908373ffffffffffffffffffffffffffffffffffffffff160217905550600454600a5f60085f9054906101000a900473ffffffffffffffffffffffffffffffffffffffff1673ffffffffffffffffffffffffffffffffffffffff1673ffffffffffffffffffffffffffffffffffffffff1681526020019081526020015f205f828254620002d09190620009e6565b92505081905550604051806080016040528060085f9054906101000a900473ffffffffffffffffffffffffffffffffffffffff1673ffffffffffffffffffffffffffffffffffffffff1681526020016040518060400160405280600881526020017f4469726563746f72000000000000000000000000000000000000000000000000815250815260200160011515815260200160011515815250600b5f60085f9054906101000a900473ffffffffffffffffffffffffffffffffffffffff1673ffffffffffffffffffffffffffffffffffffffff1673ffffffffffffffffffffffffffffffffffffffff1681526020019081526020015f205f820151815f015f6101000a81548173ffffffffffffffffffffffffffffffffffffffff021916908373ffffffffffffffffffffffffffffffffffffffff1602179055506020820151816001019081620004239190620008d5565b506040820151816002015f6101000a81548160ff02191690831515021790555060608201518160020160016101000a81548160ff021916908315150217905550905050604051806040016040528060011515815260200160085f9054906101000a900473ffffffffffffffffffffffffffffffffffffffff1673ffffffffffffffffffffffffffffffffffffffff1681525060025f60085f9054906101000a900473ffffffffffffffffffffffffffffffffffffffff1673ffffffffffffffffffffffffffffffffffffffff1673ffffffffffffffffffffffffffffffffffffffff1681526020019081526020015f205f60085f9054906101000a900473ffffffffffffffffffffffffffffffffffffffff1673ffffffffffffffffffffffffffffffffffffffff1673ffffffffffffffffffffffffffffffffffffffff1681526020019081526020015f205f820151815f015f6101000a81548160ff0219169083151502179055506020820151815f0160016101000a81548173ffffffffffffffffffffffffffffffffffffffff021916908373ffffffffffffffffffffffffffffffffffffffff1602179055509050505062000a20565b5f80fd5b5f73ffffffffffffffffffffffffffffffffffffffff82169050919050565b5f6200060b82620005e0565b9050919050565b6200061d81620005ff565b811462000628575f80fd5b50565b5f815190506200063b8162000612565b92915050565b5f60208284031215620006595762000658620005dc565b5b5f62000668848285016200062b565b91505092915050565b5f81519050919050565b7f4e487b71000000000000000000000000000000000000000000000000000000005f52604160045260245ffd5b7f4e487b71000000000000000000000000000000000000000000000000000000005f52602260045260245ffd5b5f6002820490506001821680620006ed57607f821691505b602082108103620007035762000702620006a8565b5b50919050565b5f819050815f5260205f209050919050565b5f6020601f8301049050919050565b5f82821b905092915050565b5f60088302620007677fffffffffffffffffffffffffffffffffffffffffffffffffffffffffffffffff826200072a565b6200077386836200072a565b95508019841693508086168417925050509392505050565b5f819050919050565b5f819050919050565b5f620007bd620007b7620007b1846200078b565b62000794565b6200078b565b9050919050565b5f819050919050565b620007d8836200079d565b620007f0620007e782620007c4565b84845462000736565b825550505050565b5f90565b62000806620007f8565b62000813818484620007cd565b505050565b5b818110156200083a576200082e5f82620007fc565b60018101905062000819565b5050565b601f8211156200088957620008538162000709565b6200085e846200071b565b810160208510156200086e578190505b620008866200087d856200071b565b83018262000818565b50505b505050565b5f82821c905092915050565b5f620008ab5f19846008026200088e565b1980831691505092915050565b5f620008c583836200089a565b9150826002028217905092915050565b620008e08262000671565b67ffffffffffffffff811115620008fc57620008fb6200067b565b5b620009088254620006d5565b620009158282856200083e565b5f60209050601f8311600181146200094b575f841562000936578287015190505b620009428582620008b8565b865550620009b1565b601f1984166200095b8662000709565b5f5b8281101562000984578489015182556001820191506020850194506020810190506200095d565b86831015620009a45784890151620009a0601f8916826200089a565b8355505b6001600288020188555050505b505050505050565b7f4e487b71000000000000000000000000000000000000000000000000000000005f52601160045260245ffd5b5f620009f2826200078b565b9150620009ff836200078b565b925082820190508082111562000a1a5762000a19620009b9565b5b92915050565b61274b8062000a2e5f395ff3fe6080604052600436106100e7575f3560e01c8063931ee36d11610089578063beabacc811610058578063beabacc81461034c578063cec9feb314610388578063ea1e07d1146103c4578063f088d54714610401576100e7565b8063931ee36d14610292578063a2f55ae5146102bc578063b0428da6146102f8578063b2bdfa7b14610322576100e7565b806357d3a786116100c557806357d3a786146101a257806368281708146101de5780636a6278421461021a57806370a0823114610256576100e7565b806308ae4b0c146100eb57806314951cea1461012a5780635601190014610166575b5f80fd5b3480156100f6575f80fd5b50610111600480360381019061010c9190611935565b610431565b6040516101219493929190611a13565b60405180910390f35b348015610135575f80fd5b50610150600480360381019061014b9190611b89565b61051b565b60405161015d9190611ca9565b60405180910390f35b348015610171575f80fd5b5061018c60048036038101906101879190611935565b610902565b6040516101999190611cf6565b60405180910390f35b3480156101ad575f80fd5b506101c860048036038101906101c39190611935565b610aaf565b6040516101d59190611d0f565b60405180910390f35b3480156101e9575f80fd5b5061020460048036038101906101ff9190611935565b610b5f565b6040516102119190611d0f565b60405180910390f35b348015610225575f80fd5b50610240600480360381019061023b9190611935565b610ca5565b60405161024d9190611d40565b60405180910390f35b348015610261575f80fd5b5061027c60048036038101906102779190611935565b610dcd565b6040516102899190611d40565b60405180910390f35b34801561029d575f80fd5b506102a6610e13565b6040516102b39190611d59565b60405180910390f35b3480156102c7575f80fd5b506102e260048036038101906102dd9190611935565b610e9f565b6040516102ef9190611d0f565b60405180910390f35b348015610303575f80fd5b5061030c610feb565b6040516103199190611d40565b60405180910390f35b34801561032d575f80fd5b50610336610ff1565b6040516103439190611d99565b60405180910390f35b348015610357575f80fd5b50610372600480360381019061036d9190611ddc565b611016565b60405161037f9190611d0f565b60405180910390f35b348015610393575f80fd5b506103ae60048036038101906103a99190611935565b611238565b6040516103bb9190611d0f565b60405180910390f35b3480156103cf575f80fd5b506103ea60048036038101906103e59190611e2c565b6113fc565b6040516103f8929190611e6a565b60405180910390f35b61041b60048036038101906104169190611935565b611452565b6040516104289190611d0f565b60405180910390f35b600b602052805f5260405f205f91509050805f015f9054906101000a900473ffffffffffffffffffffffffffffffffffffffff169080600101805461047590611ebe565b80601f01602080910402602001604051908101604052809291908181526020018280546104a190611ebe565b80156104ec5780601f106104c3576101008083540402835291602001916104ec565b820191905f5260205f20905b8154815290600101906020018083116104cf57829003601f168201915b505050505090806002015f9054906101000a900460ff16908060020160019054906101000a900460ff16905084565b61052361185b565b6001151560025f60085f9054906101000a900473ffffffffffffffffffffffffffffffffffffffff1673ffffffffffffffffffffffffffffffffffffffff1673ffffffffffffffffffffffffffffffffffffffff1681526020019081526020015f205f3373ffffffffffffffffffffffffffffffffffffffff1673ffffffffffffffffffffffffffffffffffffffff1681526020019081526020015f205f015f9054906101000a900460ff16151514610611576040517f08c379a000000000000000000000000000000000000000000000000000000000815260040161060890611f38565b60405180910390fd5b6001600c5f60085f9054906101000a900473ffffffffffffffffffffffffffffffffffffffff1673ffffffffffffffffffffffffffffffffffffffff1673ffffffffffffffffffffffffffffffffffffffff1681526020019081526020015f205f8573ffffffffffffffffffffffffffffffffffffffff1673ffffffffffffffffffffffffffffffffffffffff1681526020019081526020015f205f6101000a81548160ff02191690831515021790555060405180608001604052808473ffffffffffffffffffffffffffffffffffffffff1681526020018381526020015f1515815260200160011515815250600b5f8573ffffffffffffffffffffffffffffffffffffffff1673ffffffffffffffffffffffffffffffffffffffff1681526020019081526020015f205f820151815f015f6101000a81548173ffffffffffffffffffffffffffffffffffffffff021916908373ffffffffffffffffffffffffffffffffffffffff160217905550602082015181600101908161079491906120f3565b506040820151816002015f6101000a81548160ff02191690831515021790555060608201518160020160016101000a81548160ff02191690831515021790555090506040518060800160405290815f82015f9054906101000a900473ffffffffffffffffffffffffffffffffffffffff1673ffffffffffffffffffffffffffffffffffffffff1673ffffffffffffffffffffffffffffffffffffffff16815260200160018201805461084590611ebe565b80601f016020809104026020016040519081016040528092919081815260200182805461087190611ebe565b80156108bc5780601f10610893576101008083540402835291602001916108bc565b820191905f5260205f20905b81548152906001019060200180831161089f57829003601f168201915b50505050508152602001600282015f9054906101000a900460ff161515151581526020016002820160019054906101000a900460ff161515151581525050905092915050565b61090a61189a565b5f8054906101000a900473ffffffffffffffffffffffffffffffffffffffff1673ffffffffffffffffffffffffffffffffffffffff163373ffffffffffffffffffffffffffffffffffffffff1614610997576040517f08c379a000000000000000000000000000000000000000000000000000000000815260040161098e9061220c565b60405180910390fd5b60015f805f9054906101000a900473ffffffffffffffffffffffffffffffffffffffff1673ffffffffffffffffffffffffffffffffffffffff1673ffffffffffffffffffffffffffffffffffffffff1681526020019081526020015f205f8373ffffffffffffffffffffffffffffffffffffffff1673ffffffffffffffffffffffffffffffffffffffff1681526020019081526020015f206040518060400160405290815f82015f9054906101000a900460ff161515151581526020015f820160019054906101000a900473ffffffffffffffffffffffffffffffffffffffff1673ffffffffffffffffffffffffffffffffffffffff1673ffffffffffffffffffffffffffffffffffffffff16815250509050919050565b5f60025f60085f9054906101000a900473ffffffffffffffffffffffffffffffffffffffff1673ffffffffffffffffffffffffffffffffffffffff1673ffffffffffffffffffffffffffffffffffffffff1681526020019081526020015f205f8373ffffffffffffffffffffffffffffffffffffffff1673ffffffffffffffffffffffffffffffffffffffff1681526020019081526020015f205f015f9054906101000a900460ff169050919050565b5f805f9054906101000a900473ffffffffffffffffffffffffffffffffffffffff1673ffffffffffffffffffffffffffffffffffffffff163373ffffffffffffffffffffffffffffffffffffffff1614610bee576040517f08c379a0000000000000000000000000000000000000000000000000000000008152600401610be59061220c565b60405180910390fd5b5f60015f805f9054906101000a900473ffffffffffffffffffffffffffffffffffffffff1673ffffffffffffffffffffffffffffffffffffffff1673ffffffffffffffffffffffffffffffffffffffff1681526020019081526020015f205f8473ffffffffffffffffffffffffffffffffffffffff1673ffffffffffffffffffffffffffffffffffffffff1681526020019081526020015f205f015f6101000a81548160ff02191690831515021790559050919050565b5f8160011515600b5f8373ffffffffffffffffffffffffffffffffffffffff1673ffffffffffffffffffffffffffffffffffffffff1681526020019081526020015f2060020160019054906101000a900460ff16151514610d3b576040517f08c379a0000000000000000000000000000000000000000000000000000000008152600401610d3290612274565b60405180910390fd5b6001600a5f8573ffffffffffffffffffffffffffffffffffffffff1673ffffffffffffffffffffffffffffffffffffffff1681526020019081526020015f2054610d8591906122bf565b600a5f8573ffffffffffffffffffffffffffffffffffffffff1673ffffffffffffffffffffffffffffffffffffffff1681526020019081526020015f20819055915050919050565b5f600a5f8373ffffffffffffffffffffffffffffffffffffffff1673ffffffffffffffffffffffffffffffffffffffff1681526020019081526020015f20549050919050565b60058054610e2090611ebe565b80601f0160208091040260200160405190810160405280929190818152602001828054610e4c90611ebe565b8015610e975780601f10610e6e57610100808354040283529160200191610e97565b820191905f5260205f20905b815481529060010190602001808311610e7a57829003601f168201915b505050505081565b5f60095f9054906101000a900473ffffffffffffffffffffffffffffffffffffffff1673ffffffffffffffffffffffffffffffffffffffff163373ffffffffffffffffffffffffffffffffffffffff1614610f2f576040517f08c379a0000000000000000000000000000000000000000000000000000000008152600401610f2690611f38565b60405180910390fd5b600160025f60085f9054906101000a900473ffffffffffffffffffffffffffffffffffffffff1673ffffffffffffffffffffffffffffffffffffffff1673ffffffffffffffffffffffffffffffffffffffff1681526020019081526020015f205f8473ffffffffffffffffffffffffffffffffffffffff1673ffffffffffffffffffffffffffffffffffffffff1681526020019081526020015f205f015f6101000a81548160ff02191690831515021790555060019050919050565b60045481565b60085f9054906101000a900473ffffffffffffffffffffffffffffffffffffffff1681565b5f8260011515600c5f60085f9054906101000a900473ffffffffffffffffffffffffffffffffffffffff1673ffffffffffffffffffffffffffffffffffffffff1673ffffffffffffffffffffffffffffffffffffffff1681526020019081526020015f205f8373ffffffffffffffffffffffffffffffffffffffff1673ffffffffffffffffffffffffffffffffffffffff1681526020019081526020015f205f9054906101000a900460ff16151514611104576040517f08c379a00000000000000000000000000000000000000000000000000000000081526004016110fb9061233c565b60405180910390fd5b8280600a5f3373ffffffffffffffffffffffffffffffffffffffff1673ffffffffffffffffffffffffffffffffffffffff1681526020019081526020015f20541015611185576040517f08c379a000000000000000000000000000000000000000000000000000000000815260040161117c906123a4565b60405180910390fd5b83600a5f8873ffffffffffffffffffffffffffffffffffffffff1673ffffffffffffffffffffffffffffffffffffffff1681526020019081526020015f205f8282546111d191906123c2565b9250508190555083600a5f8773ffffffffffffffffffffffffffffffffffffffff1673ffffffffffffffffffffffffffffffffffffffff1681526020019081526020015f205f82825461122491906122bf565b925050819055506001925050509392505050565b5f805f9054906101000a900473ffffffffffffffffffffffffffffffffffffffff1673ffffffffffffffffffffffffffffffffffffffff163373ffffffffffffffffffffffffffffffffffffffff16146112c7576040517f08c379a00000000000000000000000000000000000000000000000000000000081526004016112be9061220c565b60405180910390fd5b60405180604001604052806001151581526020018373ffffffffffffffffffffffffffffffffffffffff1681525060015f805f9054906101000a900473ffffffffffffffffffffffffffffffffffffffff1673ffffffffffffffffffffffffffffffffffffffff1673ffffffffffffffffffffffffffffffffffffffff1681526020019081526020015f205f8473ffffffffffffffffffffffffffffffffffffffff1673ffffffffffffffffffffffffffffffffffffffff1681526020019081526020015f205f820151815f015f6101000a81548160ff0219169083151502179055506020820151815f0160016101000a81548173ffffffffffffffffffffffffffffffffffffffff021916908373ffffffffffffffffffffffffffffffffffffffff16021790555090505060019050919050565b6001602052815f5260405f20602052805f5260405f205f9150915050805f015f9054906101000a900460ff1690805f0160019054906101000a900473ffffffffffffffffffffffffffffffffffffffff16905082565b5f8160011515600b5f8373ffffffffffffffffffffffffffffffffffffffff1673ffffffffffffffffffffffffffffffffffffffff1681526020019081526020015f2060020160019054906101000a900460ff161515146114e8576040517f08c379a00000000000000000000000000000000000000000000000000000000081526004016114df90612274565b60405180910390fd5b600654600a5f8573ffffffffffffffffffffffffffffffffffffffff1673ffffffffffffffffffffffffffffffffffffffff1681526020019081526020015f205410611569576040517f08c379a00000000000000000000000000000000000000000000000000000000081526004016115609061243f565b60405180910390fd5b5f600354600a611579919061258c565b600a346115869190612603565b6115909190612603565b905060065481111580156115ee575060065481600a5f8773ffffffffffffffffffffffffffffffffffffffff1673ffffffffffffffffffffffffffffffffffffffff1681526020019081526020015f20546115eb91906122bf565b11155b61162d576040517f08c379a0000000000000000000000000000000000000000000000000000000008152600401611624906126a3565b60405180910390fd5b670de0b6b3a76400003373ffffffffffffffffffffffffffffffffffffffff16311161165c5761165b6126c1565b5b80600a5f60085f9054906101000a900473ffffffffffffffffffffffffffffffffffffffff1673ffffffffffffffffffffffffffffffffffffffff1673ffffffffffffffffffffffffffffffffffffffff1681526020019081526020015f20546116c691906123c2565b600a5f60085f9054906101000a900473ffffffffffffffffffffffffffffffffffffffff1673ffffffffffffffffffffffffffffffffffffffff1673ffffffffffffffffffffffffffffffffffffffff1681526020019081526020015f208190555060085f9054906101000a900473ffffffffffffffffffffffffffffffffffffffff1673ffffffffffffffffffffffffffffffffffffffff166108fc3490811502906040515f60405180830381858888f1935050505015801561178c573d5f803e3d5ffd5b5080600a5f8673ffffffffffffffffffffffffffffffffffffffff1673ffffffffffffffffffffffffffffffffffffffff1681526020019081526020015f20546117d691906122bf565b600a5f8673ffffffffffffffffffffffffffffffffffffffff1673ffffffffffffffffffffffffffffffffffffffff1681526020019081526020015f20819055507f2499a5330ab0979cc612135e7883ebc3cd5c9f7a8508f042540c34723348f63284826040516118489291906126ee565b60405180910390a1600192505050919050565b60405180608001604052805f73ffffffffffffffffffffffffffffffffffffffff168152602001606081526020015f151581526020015f151581525090565b60405180604001604052805f151581526020015f73ffffffffffffffffffffffffffffffffffffffff1681525090565b5f604051905090565b5f80fd5b5f80fd5b5f73ffffffffffffffffffffffffffffffffffffffff82169050919050565b5f611904826118db565b9050919050565b611914816118fa565b811461191e575f80fd5b50565b5f8135905061192f8161190b565b92915050565b5f6020828403121561194a576119496118d3565b5b5f61195784828501611921565b91505092915050565b611969816118fa565b82525050565b5f81519050919050565b5f82825260208201905092915050565b5f5b838110156119a657808201518184015260208101905061198b565b5f8484015250505050565b5f601f19601f8301169050919050565b5f6119cb8261196f565b6119d58185611979565b93506119e5818560208601611989565b6119ee816119b1565b840191505092915050565b5f8115159050919050565b611a0d816119f9565b82525050565b5f608082019050611a265f830187611960565b8181036020830152611a3881866119c1565b9050611a476040830185611a04565b611a546060830184611a04565b95945050505050565b5f80fd5b5f80fd5b7f4e487b71000000000000000000000000000000000000000000000000000000005f52604160045260245ffd5b611a9b826119b1565b810181811067ffffffffffffffff82111715611aba57611ab9611a65565b5b80604052505050565b5f611acc6118ca565b9050611ad88282611a92565b919050565b5f67ffffffffffffffff821115611af757611af6611a65565b5b611b00826119b1565b9050602081019050919050565b828183375f83830152505050565b5f611b2d611b2884611add565b611ac3565b905082815260208101848484011115611b4957611b48611a61565b5b611b54848285611b0d565b509392505050565b5f82601f830112611b7057611b6f611a5d565b5b8135611b80848260208601611b1b565b91505092915050565b5f8060408385031215611b9f57611b9e6118d3565b5b5f611bac85828601611921565b925050602083013567ffffffffffffffff811115611bcd57611bcc6118d7565b5b611bd985828601611b5c565b9150509250929050565b611bec816118fa565b82525050565b5f82825260208201905092915050565b5f611c0c8261196f565b611c168185611bf2565b9350611c26818560208601611989565b611c2f816119b1565b840191505092915050565b611c43816119f9565b82525050565b5f608083015f830151611c5e5f860182611be3565b5060208301518482036020860152611c768282611c02565b9150506040830151611c8b6040860182611c3a565b506060830151611c9e6060860182611c3a565b508091505092915050565b5f6020820190508181035f830152611cc18184611c49565b905092915050565b604082015f820151611cdd5f850182611c3a565b506020820151611cf06020850182611be3565b50505050565b5f604082019050611d095f830184611cc9565b92915050565b5f602082019050611d225f830184611a04565b92915050565b5f819050919050565b611d3a81611d28565b82525050565b5f602082019050611d535f830184611d31565b92915050565b5f6020820190508181035f830152611d7181846119c1565b905092915050565b5f611d83826118db565b9050919050565b611d9381611d79565b82525050565b5f602082019050611dac5f830184611d8a565b92915050565b611dbb81611d28565b8114611dc5575f80fd5b50565b5f81359050611dd681611db2565b92915050565b5f805f60608486031215611df357611df26118d3565b5b5f611e0086828701611921565b9350506020611e1186828701611921565b9250506040611e2286828701611dc8565b9150509250925092565b5f8060408385031215611e4257611e416118d3565b5b5f611e4f85828601611921565b9250506020611e6085828601611921565b9150509250929050565b5f604082019050611e7d5f830185611a04565b611e8a6020830184611960565b9392505050565b7f4e487b71000000000000000000000000000000000000000000000000000000005f52602260045260245ffd5b5f6002820490506001821680611ed557607f821691505b602082108103611ee857611ee7611e91565b5b50919050565b7f5065726d697373696f6e2064656e6965640000000000000000000000000000005f82015250565b5f611f22601183611979565b9150611f2d82611eee565b602082019050919050565b5f6020820190508181035f830152611f4f81611f16565b9050919050565b5f819050815f5260205f209050919050565b5f6020601f8301049050919050565b5f82821b905092915050565b5f60088302611fb27fffffffffffffffffffffffffffffffffffffffffffffffffffffffffffffffff82611f77565b611fbc8683611f77565b95508019841693508086168417925050509392505050565b5f819050919050565b5f611ff7611ff2611fed84611d28565b611fd4565b611d28565b9050919050565b5f819050919050565b61201083611fdd565b61202461201c82611ffe565b848454611f83565b825550505050565b5f90565b61203861202c565b612043818484612007565b505050565b5b818110156120665761205b5f82612030565b600181019050612049565b5050565b601f8211156120ab5761207c81611f56565b61208584611f68565b81016020851015612094578190505b6120a86120a085611f68565b830182612048565b50505b505050565b5f82821c905092915050565b5f6120cb5f19846008026120b0565b1980831691505092915050565b5f6120e383836120bc565b9150826002028217905092915050565b6120fc8261196f565b67ffffffffffffffff81111561211557612114611a65565b5b61211f8254611ebe565b61212a82828561206a565b5f60209050601f83116001811461215b575f8415612149578287015190505b61215385826120d8565b8655506121ba565b601f19841661216986611f56565b5f5b828110156121905784890151825560018201915060208501945060208101905061216b565b868310156121ad57848901516121a9601f8916826120bc565b8355505b6001600288020188555050505b505050505050565b7f4163636573732064656e696564000000000000000000000000000000000000005f82015250565b5f6121f6600d83611979565b9150612201826121c2565b602082019050919050565b5f6020820190508181035f830152612223816121ea565b9050919050565b7f4163636573732064656e6965642c206e6f742061206d656d62657200000000005f82015250565b5f61225e601b83611979565b91506122698261222a565b602082019050919050565b5f6020820190508181035f83015261228b81612252565b9050919050565b7f4e487b71000000000000000000000000000000000000000000000000000000005f52601160045260245ffd5b5f6122c982611d28565b91506122d483611d28565b92508282019050808211156122ec576122eb612292565b5b92915050565b7f496e76616c696420434d53544b206164647265737300000000000000000000005f82015250565b5f612326601583611979565b9150612331826122f2565b602082019050919050565b5f6020820190508181035f8301526123538161231a565b9050919050565b7f496e73756666696369656e742062616c616e63650000000000000000000000005f82015250565b5f61238e601483611979565b91506123998261235a565b602082019050919050565b5f6020820190508181035f8301526123bb81612382565b9050919050565b5f6123cc82611d28565b91506123d783611d28565b92508282039050818111156123ef576123ee612292565b5b92915050565b7f627579696e67206c696d697420686173207265616368656400000000000000005f82015250565b5f612429601883611979565b9150612434826123f5565b602082019050919050565b5f6020820190508181035f8301526124568161241d565b9050919050565b5f8160011c9050919050565b5f808291508390505b60018511156124b25780860481111561248e5761248d612292565b5b600185161561249d5780820291505b80810290506124ab8561245d565b9450612472565b94509492505050565b5f826124ca5760019050612585565b816124d7575f9050612585565b81600181146124ed57600281146124f757612526565b6001915050612585565b60ff84111561250957612508612292565b5b8360020a9150848211156125205761251f612292565b5b50612585565b5060208310610133831016604e8410600b841016171561255b5782820a90508381111561255657612555612292565b5b612585565b6125688484846001612469565b9250905081840481111561257f5761257e612292565b5b81810290505b9392505050565b5f61259682611d28565b91506125a183611d28565b92506125ce7fffffffffffffffffffffffffffffffffffffffffffffffffffffffffffffffff84846124bb565b905092915050565b7f4e487b71000000000000000000000000000000000000000000000000000000005f52601260045260245ffd5b5f61260d82611d28565b915061261883611d28565b925082612628576126276125d6565b5b828204905092915050565b7f41732061206d656d62657220796f752063616e206f6e6c7920627579204120685f8201527f756e64726564207368617265732e000000000000000000000000000000000000602082015250565b5f61268d602e83611979565b915061269882612633565b604082019050919050565b5f6020820190508181035f8301526126ba81612681565b9050919050565b7f4e487b71000000000000000000000000000000000000000000000000000000005f52600160045260245ffd5b5f6040820190506127015f830185611960565b61270e6020830184611d31565b939250505056fea2646970667358221220f87d00eadef33648a86b51ed0b21f56416b4b6220933b15bc6ff7029c35e5acb64736f6c63430008150033",
  "immutableReferences": {},
  "source": "// SPDX-License-Identifier: MIT\npragma solidity >=0.4.22 <0.9.0;\nimport \"@openzeppelin/contracts/utils/math/Math.sol\";\nimport \"./Auth/_Auth.sol\";\n\ncontract CMS is Auth {\n    struct new_admin {\n        bool isAllowed;\n        address admin;\n    }\n\n    mapping(address => mapping(address => new_admin)) administrators;\n\n    event Purchase(address _buyer, uint256 amount);\n\n    uint256 decimals = 15;\n    uint256 public _totalShares = 1000;\n    string public business_name;\n    uint256 private memberSharesLimit = 100;\n    uint256 private shareHolderLimit = 500;\n    address payable public _owner;\n    address private _director;\n    mapping(address => uint256) private balances;\n\n    struct member {\n        address identity;\n        string name;\n        bool isShareHolder;\n        bool onboarded;\n    }\n\n    mapping(address => member) public members;\n    mapping(address token => mapping(address => bool)) _CMSAddress;\n\n    constructor(address payable _address) Auth(_address) {\n        business_name = \"COSMOS TOKEN\";\n        _owner = _address;\n        balances[_owner] += _totalShares;\n        members[_owner] = member({\n            identity: _owner,\n            name: \"Director\",\n            isShareHolder: true,\n            onboarded: true\n        });\n\n        administrators[_owner][_owner] = new_admin({\n            isAllowed: true,\n            admin: _owner\n        });\n    }\n\n    function balanceOf(address _address) public view returns (uint256 balance) {\n        return balances[_address];\n    }\n\n    modifier isAdmin() {\n        require(\n            administrators[_owner][msg.sender].isAllowed == true,\n            \"Permission denied\"\n        );\n        _;\n    }\n\n    //?? @dev  this function adds new customer and sign a COSMOS TOKEN wallet to tthe user\n    function onboard(\n        address _user_address,\n        string memory _user_name\n    ) public isAdmin returns (member memory) {\n        _CMSAddress[_owner][_user_address] = true;\n        return\n            members[_user_address] = member({\n                identity: _user_address,\n                name: _user_name,\n                isShareHolder: false,\n                onboarded: true\n            });\n    }\n\n    modifier fromDirector() {\n        require(msg.sender == _director, \"Permission denied\");\n        _;\n    }\n\n    function permit(\n        address _address\n    ) public fromDirector returns (bool status) {\n        administrators[_owner][_address].isAllowed = true;\n        return true;\n    }\n\n    modifier isMember(address _address) {\n        require(\n            members[_address].onboarded == true,\n            \"Access denied, not a member\"\n        );\n        _;\n    }\n\n    function buy(\n        address _user\n    ) public payable isMember(_user) returns (bool success) {\n        require(\n            balances[_user] < memberSharesLimit,\n            \"buying limit has reached\"\n        );\n        uint256 sharesAmount = msg.value / 10 / 10 ** decimals;\n        require(\n            sharesAmount <= memberSharesLimit &&\n                (balances[_user] + sharesAmount) <= memberSharesLimit,\n            \"As a member you can only buy A hundred shares.\"\n        );\n\n        assert(msg.sender.balance > 10 ** 18);\n        balances[_owner] = balances[_owner] - sharesAmount;\n        _owner.transfer(msg.value);\n        balances[_user] = balances[_user] + sharesAmount;\n        emit Purchase(_user, sharesAmount);\n        return true;\n    }\n\n    function checkPermission(address _user) public view returns (bool) {\n        return administrators[_owner][_user].isAllowed;\n    }\n\n    function mint(\n        address _address\n    ) public isMember(_address) returns (uint256) {\n        return balances[_address] = balances[_address] + 1;\n    }\n\n    modifier hasEnoughToken(uint256 _amount) {\n        require(balances[msg.sender] >= _amount, \"Insufficient balance\");\n        _;\n    }\n\n    modifier onlyToCMSAddress(address _address) {\n        require(_CMSAddress[_owner][_address] == true, \"Invalid CMSTK address\");\n        _;\n    }\n\n    function transfer(\n        address _from,\n        address _to,\n        uint256 amount\n    )\n        public\n        onlyToCMSAddress(_to)\n        hasEnoughToken(amount)\n        returns (bool success)\n    {\n        balances[_from] -= amount;\n        balances[_to] += amount;\n        return true;\n    }\n}\n",
  "sourcePath": "C:\\Users\\Ayomide\\Blockchain\\CMS\\contracts\\CMS.sol",
  "compiler": {
    "name": "solc",
    "version": "0.8.21+commit.d9974bed.Emscripten.clang"
  },
  "schemaVersion": "3.4.16",
  "updatedAt": "2024-07-03T05:19:26.291Z",
  "devdoc": {
    "kind": "dev",
    "methods": {},
    "version": 1
  },
  "userdoc": {
    "kind": "user",
    "methods": {},
    "version": 1
  }
}